{
  "_format": "hh-sol-artifact-1",
  "contractName": "BadgeNFT",
  "sourceName": "contracts/BadgeNFT.sol",
  "abi": [
    {
      "inputs": [],
      "stateMutability": "nonpayable",
      "type": "constructor"
    },
    {
      "anonymous": false,
      "inputs": [
        {
          "indexed": true,
          "internalType": "address",
          "name": "owner",
          "type": "address"
        },
        {
          "indexed": true,
          "internalType": "address",
          "name": "approved",
          "type": "address"
        },
        {
          "indexed": true,
          "internalType": "uint256",
          "name": "tokenId",
          "type": "uint256"
        }
      ],
      "name": "Approval",
      "type": "event"
    },
    {
      "anonymous": false,
      "inputs": [
        {
          "indexed": true,
          "internalType": "address",
          "name": "owner",
          "type": "address"
        },
        {
          "indexed": true,
          "internalType": "address",
          "name": "operator",
          "type": "address"
        },
        {
          "indexed": false,
          "internalType": "bool",
          "name": "approved",
          "type": "bool"
        }
      ],
      "name": "ApprovalForAll",
      "type": "event"
    },
    {
      "anonymous": false,
      "inputs": [
        {
          "indexed": true,
          "internalType": "uint256",
          "name": "tokenId",
          "type": "uint256"
        },
        {
          "indexed": true,
          "internalType": "address",
          "name": "recipient",
          "type": "address"
        },
        {
          "indexed": false,
          "internalType": "string",
          "name": "badgeType",
          "type": "string"
        },
        {
          "indexed": true,
          "internalType": "address",
          "name": "issuedBy",
          "type": "address"
        }
      ],
      "name": "BadgeIssued",
      "type": "event"
    },
    {
      "anonymous": false,
      "inputs": [
        {
          "indexed": false,
          "internalType": "uint256",
          "name": "_fromTokenId",
          "type": "uint256"
        },
        {
          "indexed": false,
          "internalType": "uint256",
          "name": "_toTokenId",
          "type": "uint256"
        }
      ],
      "name": "BatchMetadataUpdate",
      "type": "event"
    },
    {
      "anonymous": false,
      "inputs": [
        {
          "indexed": false,
          "internalType": "uint256",
          "name": "_tokenId",
          "type": "uint256"
        }
      ],
      "name": "MetadataUpdate",
      "type": "event"
    },
    {
      "anonymous": false,
      "inputs": [
        {
          "indexed": true,
          "internalType": "address",
          "name": "previousOwner",
          "type": "address"
        },
        {
          "indexed": true,
          "internalType": "address",
          "name": "newOwner",
          "type": "address"
        }
      ],
      "name": "OwnershipTransferred",
      "type": "event"
    },
    {
      "anonymous": false,
      "inputs": [
        {
          "indexed": true,
          "internalType": "address",
          "name": "from",
          "type": "address"
        },
        {
          "indexed": true,
          "internalType": "address",
          "name": "to",
          "type": "address"
        },
        {
          "indexed": true,
          "internalType": "uint256",
          "name": "tokenId",
          "type": "uint256"
        }
      ],
      "name": "Transfer",
      "type": "event"
    },
    {
      "inputs": [
        {
          "internalType": "address",
          "name": "to",
          "type": "address"
        },
        {
          "internalType": "uint256",
          "name": "tokenId",
          "type": "uint256"
        }
      ],
      "name": "approve",
      "outputs": [],
      "stateMutability": "nonpayable",
      "type": "function"
    },
    {
      "inputs": [
        {
          "internalType": "uint256",
          "name": "",
          "type": "uint256"
        }
      ],
      "name": "badgeIssuer",
      "outputs": [
        {
          "internalType": "address",
          "name": "",
          "type": "address"
        }
      ],
      "stateMutability": "view",
      "type": "function"
    },
    {
      "inputs": [
        {
          "internalType": "address",
          "name": "owner",
          "type": "address"
        }
      ],
      "name": "balanceOf",
      "outputs": [
        {
          "internalType": "uint256",
          "name": "",
          "type": "uint256"
        }
      ],
      "stateMutability": "view",
      "type": "function"
    },
    {
      "inputs": [
        {
          "internalType": "uint256",
          "name": "tokenId",
          "type": "uint256"
        }
      ],
      "name": "getApproved",
      "outputs": [
        {
          "internalType": "address",
          "name": "",
          "type": "address"
        }
      ],
      "stateMutability": "view",
      "type": "function"
    },
    {
      "inputs": [
        {
          "internalType": "address",
          "name": "org",
          "type": "address"
        }
      ],
      "name": "getOrgStatus",
      "outputs": [
        {
          "internalType": "bool",
          "name": "",
          "type": "bool"
        }
      ],
      "stateMutability": "view",
      "type": "function"
    },
    {
      "inputs": [
        {
          "internalType": "address",
          "name": "owner",
          "type": "address"
        },
        {
          "internalType": "address",
          "name": "operator",
          "type": "address"
        }
      ],
      "name": "isApprovedForAll",
      "outputs": [
        {
          "internalType": "bool",
          "name": "",
          "type": "bool"
        }
      ],
      "stateMutability": "view",
      "type": "function"
    },
    {
      "inputs": [
        {
          "internalType": "address",
          "name": "",
          "type": "address"
        }
      ],
      "name": "isWhitelistedOrg",
      "outputs": [
        {
          "internalType": "bool",
          "name": "",
          "type": "bool"
        }
      ],
      "stateMutability": "view",
      "type": "function"
    },
    {
      "inputs": [
        {
          "internalType": "address",
          "name": "to",
          "type": "address"
        },
        {
          "internalType": "string",
          "name": "badgeType",
          "type": "string"
        },
        {
          "internalType": "string",
          "name": "tokenURI",
          "type": "string"
        }
      ],
      "name": "mintBadge",
      "outputs": [
        {
          "internalType": "uint256",
          "name": "",
          "type": "uint256"
        }
      ],
      "stateMutability": "nonpayable",
      "type": "function"
    },
    {
      "inputs": [],
      "name": "name",
      "outputs": [
        {
          "internalType": "string",
          "name": "",
          "type": "string"
        }
      ],
      "stateMutability": "view",
      "type": "function"
    },
    {
      "inputs": [],
      "name": "nextTokenId",
      "outputs": [
        {
          "internalType": "uint256",
          "name": "",
          "type": "uint256"
        }
      ],
      "stateMutability": "view",
      "type": "function"
    },
    {
      "inputs": [],
      "name": "owner",
      "outputs": [
        {
          "internalType": "address",
          "name": "",
          "type": "address"
        }
      ],
      "stateMutability": "view",
      "type": "function"
    },
    {
      "inputs": [
        {
          "internalType": "uint256",
          "name": "tokenId",
          "type": "uint256"
        }
      ],
      "name": "ownerOf",
      "outputs": [
        {
          "internalType": "address",
          "name": "",
          "type": "address"
        }
      ],
      "stateMutability": "view",
      "type": "function"
    },
    {
      "inputs": [],
      "name": "renounceOwnership",
      "outputs": [],
      "stateMutability": "nonpayable",
      "type": "function"
    },
    {
      "inputs": [
        {
          "internalType": "address",
          "name": "from",
          "type": "address"
        },
        {
          "internalType": "address",
          "name": "to",
          "type": "address"
        },
        {
          "internalType": "uint256",
          "name": "tokenId",
          "type": "uint256"
        }
      ],
      "name": "safeTransferFrom",
      "outputs": [],
      "stateMutability": "nonpayable",
      "type": "function"
    },
    {
      "inputs": [
        {
          "internalType": "address",
          "name": "from",
          "type": "address"
        },
        {
          "internalType": "address",
          "name": "to",
          "type": "address"
        },
        {
          "internalType": "uint256",
          "name": "tokenId",
          "type": "uint256"
        },
        {
          "internalType": "bytes",
          "name": "data",
          "type": "bytes"
        }
      ],
      "name": "safeTransferFrom",
      "outputs": [],
      "stateMutability": "nonpayable",
      "type": "function"
    },
    {
      "inputs": [
        {
          "internalType": "address",
          "name": "operator",
          "type": "address"
        },
        {
          "internalType": "bool",
          "name": "approved",
          "type": "bool"
        }
      ],
      "name": "setApprovalForAll",
      "outputs": [],
      "stateMutability": "nonpayable",
      "type": "function"
    },
    {
      "inputs": [
        {
          "internalType": "bytes4",
          "name": "interfaceId",
          "type": "bytes4"
        }
      ],
      "name": "supportsInterface",
      "outputs": [
        {
          "internalType": "bool",
          "name": "",
          "type": "bool"
        }
      ],
      "stateMutability": "view",
      "type": "function"
    },
    {
      "inputs": [],
      "name": "symbol",
      "outputs": [
        {
          "internalType": "string",
          "name": "",
          "type": "string"
        }
      ],
      "stateMutability": "view",
      "type": "function"
    },
    {
      "inputs": [
        {
          "internalType": "uint256",
          "name": "tokenId",
          "type": "uint256"
        }
      ],
      "name": "tokenURI",
      "outputs": [
        {
          "internalType": "string",
          "name": "",
          "type": "string"
        }
      ],
      "stateMutability": "view",
      "type": "function"
    },
    {
      "inputs": [
        {
          "internalType": "address",
          "name": "from",
          "type": "address"
        },
        {
          "internalType": "address",
          "name": "to",
          "type": "address"
        },
        {
          "internalType": "uint256",
          "name": "tokenId",
          "type": "uint256"
        }
      ],
      "name": "transferFrom",
      "outputs": [],
      "stateMutability": "nonpayable",
      "type": "function"
    },
    {
      "inputs": [
        {
          "internalType": "address",
          "name": "newOwner",
          "type": "address"
        }
      ],
      "name": "transferOwnership",
      "outputs": [],
      "stateMutability": "nonpayable",
      "type": "function"
    },
    {
      "inputs": [
        {
          "internalType": "address",
          "name": "org",
          "type": "address"
        },
        {
          "internalType": "bool",
          "name": "approved",
          "type": "bool"
        }
      ],
      "name": "whitelistOrg",
      "outputs": [],
      "stateMutability": "nonpayable",
      "type": "function"
    }
  ],
  "bytecode": "0x60806040523480156200001157600080fd5b506040518060400160405280600e81526020017f446563656e7449442042616467650000000000000000000000000000000000008152506040518060400160405280600481526020017f444944420000000000000000000000000000000000000000000000000000000081525081600090816200008f919062000412565b508060019081620000a1919062000412565b505050620000c4620000b8620000ca60201b60201c565b620000d260201b60201c565b620004f9565b600033905090565b6000600760009054906101000a900473ffffffffffffffffffffffffffffffffffffffff16905081600760006101000a81548173ffffffffffffffffffffffffffffffffffffffff021916908373ffffffffffffffffffffffffffffffffffffffff1602179055508173ffffffffffffffffffffffffffffffffffffffff168173ffffffffffffffffffffffffffffffffffffffff167f8be0079c531659141344cd1fd0a4f28419497f9722a3daafe3b4186f6b6457e060405160405180910390a35050565b600081519050919050565b7f4e487b7100000000000000000000000000000000000000000000000000000000600052604160045260246000fd5b7f4e487b7100000000000000000000000000000000000000000000000000000000600052602260045260246000fd5b600060028204905060018216806200021a57607f821691505b60208210810362000230576200022f620001d2565b5b50919050565b60008190508160005260206000209050919050565b60006020601f8301049050919050565b600082821b905092915050565b6000600883026200029a7fffffffffffffffffffffffffffffffffffffffffffffffffffffffffffffffff826200025b565b620002a686836200025b565b95508019841693508086168417925050509392505050565b6000819050919050565b6000819050919050565b6000620002f3620002ed620002e784620002be565b620002c8565b620002be565b9050919050565b6000819050919050565b6200030f83620002d2565b620003276200031e82620002fa565b84845462000268565b825550505050565b600090565b6200033e6200032f565b6200034b81848462000304565b505050565b5b8181101562000373576200036760008262000334565b60018101905062000351565b5050565b601f821115620003c2576200038c8162000236565b62000397846200024b565b81016020851015620003a7578190505b620003bf620003b6856200024b565b83018262000350565b50505b505050565b600082821c905092915050565b6000620003e760001984600802620003c7565b1980831691505092915050565b6000620004028383620003d4565b9150826002028217905092915050565b6200041d8262000198565b67ffffffffffffffff811115620004395762000438620001a3565b5b62000445825462000201565b6200045282828562000377565b600060209050601f8311600181146200048a576000841562000475578287015190505b620004818582620003f4565b865550620004f1565b601f1984166200049a8662000236565b60005b82811015620004c4578489015182556001820191506020850194506020810190506200049d565b86831015620004e45784890151620004e0601f891682620003d4565b8355505b6001600288020188555050505b505050505050565b6132bb80620005096000396000f3fe608060405234801561001057600080fd5b50600436106101425760003560e01c806375794a3c116100b8578063a22cb4651161007c578063a22cb46514610389578063b88d4fde146103a5578063c87b56dd146103c1578063e985e9c5146103f1578063f2fde38b14610421578063f6f6cc671461043d57610142565b806375794a3c146102e35780637e96122a14610301578063854cf581146103315780638da5cb5b1461034d57806395d89b411461036b57610142565b806323b872dd1161010a57806323b872dd1461021157806342842e0e1461022d578063587c753d146102495780636352211e1461027957806370a08231146102a9578063715018a6146102d957610142565b806301ffc9a71461014757806306fdde0314610177578063081812fc14610195578063095ea7b3146101c55780630d3d396f146101e1575b600080fd5b610161600480360381019061015c9190611f74565b61046d565b60405161016e9190611fbc565b60405180910390f35b61017f6104ce565b60405161018c9190612067565b60405180910390f35b6101af60048036038101906101aa91906120bf565b610560565b6040516101bc919061212d565b60405180910390f35b6101df60048036038101906101da9190612174565b6105a6565b005b6101fb60048036038101906101f691906121b4565b6106bd565b6040516102089190611fbc565b60405180910390f35b61022b600480360381019061022691906121e1565b610713565b005b610247600480360381019061024291906121e1565b610773565b005b610263600480360381019061025e9190612369565b610793565b6040516102709190612403565b60405180910390f35b610293600480360381019061028e91906120bf565b610917565b6040516102a0919061212d565b60405180910390f35b6102c360048036038101906102be91906121b4565b61099d565b6040516102d09190612403565b60405180910390f35b6102e1610a54565b005b6102eb610a68565b6040516102f89190612403565b60405180910390f35b61031b600480360381019061031691906121b4565b610a6e565b6040516103289190611fbc565b60405180910390f35b61034b6004803603810190610346919061244a565b610a8e565b005b610355610af1565b604051610362919061212d565b60405180910390f35b610373610b1b565b6040516103809190612067565b60405180910390f35b6103a3600480360381019061039e919061244a565b610bad565b005b6103bf60048036038101906103ba919061252b565b610bc3565b005b6103db60048036038101906103d691906120bf565b610c25565b6040516103e89190612067565b60405180910390f35b61040b600480360381019061040691906125ae565b610d37565b6040516104189190611fbc565b60405180910390f35b61043b600480360381019061043691906121b4565b610dcb565b005b610457600480360381019061045291906120bf565b610e4e565b604051610464919061212d565b60405180910390f35b6000634906490660e01b7bffffffffffffffffffffffffffffffffffffffffffffffffffffffff1916827bffffffffffffffffffffffffffffffffffffffffffffffffffffffff191614806104c757506104c682610e81565b5b9050919050565b6060600080546104dd9061261d565b80601f01602080910402602001604051908101604052809291908181526020018280546105099061261d565b80156105565780601f1061052b57610100808354040283529160200191610556565b820191906000526020600020905b81548152906001019060200180831161053957829003601f168201915b5050505050905090565b600061056b82610f63565b6004600083815260200190815260200160002060009054906101000a900473ffffffffffffffffffffffffffffffffffffffff169050919050565b60006105b182610917565b90508073ffffffffffffffffffffffffffffffffffffffff168373ffffffffffffffffffffffffffffffffffffffff1603610621576040517f08c379a0000000000000000000000000000000000000000000000000000000008152600401610618906126c0565b60405180910390fd5b8073ffffffffffffffffffffffffffffffffffffffff16610640610fae565b73ffffffffffffffffffffffffffffffffffffffff16148061066f575061066e81610669610fae565b610d37565b5b6106ae576040517f08c379a00000000000000000000000000000000000000000000000000000000081526004016106a590612752565b60405180910390fd5b6106b88383610fb6565b505050565b6000600960008373ffffffffffffffffffffffffffffffffffffffff1673ffffffffffffffffffffffffffffffffffffffff16815260200190815260200160002060009054906101000a900460ff169050919050565b61072461071e610fae565b8261106f565b610763576040517f08c379a000000000000000000000000000000000000000000000000000000000815260040161075a906127e4565b60405180910390fd5b61076e838383611104565b505050565b61078e83838360405180602001604052806000815250610bc3565b505050565b6000600960003373ffffffffffffffffffffffffffffffffffffffff1673ffffffffffffffffffffffffffffffffffffffff16815260200190815260200160002060009054906101000a900460ff16610821576040517f08c379a000000000000000000000000000000000000000000000000000000000815260040161081890612876565b60405180910390fd5b6000600854905061083285826113fd565b61083c818461161a565b6008600081548092919061084f906128c5565b919050555033600a600083815260200190815260200160002060006101000a81548173ffffffffffffffffffffffffffffffffffffffff021916908373ffffffffffffffffffffffffffffffffffffffff1602179055503373ffffffffffffffffffffffffffffffffffffffff168573ffffffffffffffffffffffffffffffffffffffff16827fee2689eb37437749e409e5e5b4bad745b7b3be3398769d04d3610b4224554b18876040516109049190612067565b60405180910390a4809150509392505050565b600080610923836116be565b9050600073ffffffffffffffffffffffffffffffffffffffff168173ffffffffffffffffffffffffffffffffffffffff1603610994576040517f08c379a000000000000000000000000000000000000000000000000000000000815260040161098b90612959565b60405180910390fd5b80915050919050565b60008073ffffffffffffffffffffffffffffffffffffffff168273ffffffffffffffffffffffffffffffffffffffff1603610a0d576040517f08c379a0000000000000000000000000000000000000000000000000000000008152600401610a04906129eb565b60405180910390fd5b600360008373ffffffffffffffffffffffffffffffffffffffff1673ffffffffffffffffffffffffffffffffffffffff168152602001908152602001600020549050919050565b610a5c6116fb565b610a666000611779565b565b60085481565b60096020528060005260406000206000915054906101000a900460ff1681565b610a966116fb565b80600960008473ffffffffffffffffffffffffffffffffffffffff1673ffffffffffffffffffffffffffffffffffffffff16815260200190815260200160002060006101000a81548160ff0219169083151502179055505050565b6000600760009054906101000a900473ffffffffffffffffffffffffffffffffffffffff16905090565b606060018054610b2a9061261d565b80601f0160208091040260200160405190810160405280929190818152602001828054610b569061261d565b8015610ba35780601f10610b7857610100808354040283529160200191610ba3565b820191906000526020600020905b815481529060010190602001808311610b8657829003601f168201915b5050505050905090565b610bbf610bb8610fae565b838361183f565b5050565b610bd4610bce610fae565b8361106f565b610c13576040517f08c379a0000000000000000000000000000000000000000000000000000000008152600401610c0a906127e4565b60405180910390fd5b610c1f848484846119ab565b50505050565b6060610c3082610f63565b6000600660008481526020019081526020016000208054610c509061261d565b80601f0160208091040260200160405190810160405280929190818152602001828054610c7c9061261d565b8015610cc95780601f10610c9e57610100808354040283529160200191610cc9565b820191906000526020600020905b815481529060010190602001808311610cac57829003601f168201915b505050505090506000610cda611a07565b90506000815103610cef578192505050610d32565b600082511115610d24578082604051602001610d0c929190612a47565b60405160208183030381529060405292505050610d32565b610d2d84611a1e565b925050505b919050565b6000600560008473ffffffffffffffffffffffffffffffffffffffff1673ffffffffffffffffffffffffffffffffffffffff16815260200190815260200160002060008373ffffffffffffffffffffffffffffffffffffffff1673ffffffffffffffffffffffffffffffffffffffff16815260200190815260200160002060009054906101000a900460ff16905092915050565b610dd36116fb565b600073ffffffffffffffffffffffffffffffffffffffff168173ffffffffffffffffffffffffffffffffffffffff1603610e42576040517f08c379a0000000000000000000000000000000000000000000000000000000008152600401610e3990612add565b60405180910390fd5b610e4b81611779565b50565b600a6020528060005260406000206000915054906101000a900473ffffffffffffffffffffffffffffffffffffffff1681565b60007f80ac58cd000000000000000000000000000000000000000000000000000000007bffffffffffffffffffffffffffffffffffffffffffffffffffffffff1916827bffffffffffffffffffffffffffffffffffffffffffffffffffffffff19161480610f4c57507f5b5e139f000000000000000000000000000000000000000000000000000000007bffffffffffffffffffffffffffffffffffffffffffffffffffffffff1916827bffffffffffffffffffffffffffffffffffffffffffffffffffffffff1916145b80610f5c5750610f5b82611a86565b5b9050919050565b610f6c81611af0565b610fab576040517f08c379a0000000000000000000000000000000000000000000000000000000008152600401610fa290612959565b60405180910390fd5b50565b600033905090565b816004600083815260200190815260200160002060006101000a81548173ffffffffffffffffffffffffffffffffffffffff021916908373ffffffffffffffffffffffffffffffffffffffff160217905550808273ffffffffffffffffffffffffffffffffffffffff1661102983610917565b73ffffffffffffffffffffffffffffffffffffffff167f8c5be1e5ebec7d5bd14f71427d1e84f3dd0314c0f7b2291e5b200ac8c7c3b92560405160405180910390a45050565b60008061107b83610917565b90508073ffffffffffffffffffffffffffffffffffffffff168473ffffffffffffffffffffffffffffffffffffffff1614806110bd57506110bc8185610d37565b5b806110fb57508373ffffffffffffffffffffffffffffffffffffffff166110e384610560565b73ffffffffffffffffffffffffffffffffffffffff16145b91505092915050565b8273ffffffffffffffffffffffffffffffffffffffff1661112482610917565b73ffffffffffffffffffffffffffffffffffffffff161461117a576040517f08c379a000000000000000000000000000000000000000000000000000000000815260040161117190612b6f565b60405180910390fd5b600073ffffffffffffffffffffffffffffffffffffffff168273ffffffffffffffffffffffffffffffffffffffff16036111e9576040517f08c379a00000000000000000000000000000000000000000000000000000000081526004016111e090612c01565b60405180910390fd5b6111f68383836001611b31565b8273ffffffffffffffffffffffffffffffffffffffff1661121682610917565b73ffffffffffffffffffffffffffffffffffffffff161461126c576040517f08c379a000000000000000000000000000000000000000000000000000000000815260040161126390612b6f565b60405180910390fd5b6004600082815260200190815260200160002060006101000a81549073ffffffffffffffffffffffffffffffffffffffff02191690556001600360008573ffffffffffffffffffffffffffffffffffffffff1673ffffffffffffffffffffffffffffffffffffffff168152602001908152602001600020600082825403925050819055506001600360008473ffffffffffffffffffffffffffffffffffffffff1673ffffffffffffffffffffffffffffffffffffffff16815260200190815260200160002060008282540192505081905550816002600083815260200190815260200160002060006101000a81548173ffffffffffffffffffffffffffffffffffffffff021916908373ffffffffffffffffffffffffffffffffffffffff160217905550808273ffffffffffffffffffffffffffffffffffffffff168473ffffffffffffffffffffffffffffffffffffffff167fddf252ad1be2c89b69c2b068fc378daa952ba7f163c4a11628f55a4df523b3ef60405160405180910390a46113f88383836001611b37565b505050565b600073ffffffffffffffffffffffffffffffffffffffff168273ffffffffffffffffffffffffffffffffffffffff160361146c576040517f08c379a000000000000000000000000000000000000000000000000000000000815260040161146390612c6d565b60405180910390fd5b61147581611af0565b156114b5576040517f08c379a00000000000000000000000000000000000000000000000000000000081526004016114ac90612cd9565b60405180910390fd5b6114c3600083836001611b31565b6114cc81611af0565b1561150c576040517f08c379a000000000000000000000000000000000000000000000000000000000815260040161150390612cd9565b60405180910390fd5b6001600360008473ffffffffffffffffffffffffffffffffffffffff1673ffffffffffffffffffffffffffffffffffffffff16815260200190815260200160002060008282540192505081905550816002600083815260200190815260200160002060006101000a81548173ffffffffffffffffffffffffffffffffffffffff021916908373ffffffffffffffffffffffffffffffffffffffff160217905550808273ffffffffffffffffffffffffffffffffffffffff16600073ffffffffffffffffffffffffffffffffffffffff167fddf252ad1be2c89b69c2b068fc378daa952ba7f163c4a11628f55a4df523b3ef60405160405180910390a4611616600083836001611b37565b5050565b61162382611af0565b611662576040517f08c379a000000000000000000000000000000000000000000000000000000000815260040161165990612d6b565b60405180910390fd5b806006600084815260200190815260200160002090816116829190612f37565b507ff8e1a15aba9398e019f0b49df1a4fde98ee17ae345cb5f6b5e2c27f5033e8ce7826040516116b29190612403565b60405180910390a15050565b60006002600083815260200190815260200160002060009054906101000a900473ffffffffffffffffffffffffffffffffffffffff169050919050565b611703610fae565b73ffffffffffffffffffffffffffffffffffffffff16611721610af1565b73ffffffffffffffffffffffffffffffffffffffff1614611777576040517f08c379a000000000000000000000000000000000000000000000000000000000815260040161176e90613055565b60405180910390fd5b565b6000600760009054906101000a900473ffffffffffffffffffffffffffffffffffffffff16905081600760006101000a81548173ffffffffffffffffffffffffffffffffffffffff021916908373ffffffffffffffffffffffffffffffffffffffff1602179055508173ffffffffffffffffffffffffffffffffffffffff168173ffffffffffffffffffffffffffffffffffffffff167f8be0079c531659141344cd1fd0a4f28419497f9722a3daafe3b4186f6b6457e060405160405180910390a35050565b8173ffffffffffffffffffffffffffffffffffffffff168373ffffffffffffffffffffffffffffffffffffffff16036118ad576040517f08c379a00000000000000000000000000000000000000000000000000000000081526004016118a4906130c1565b60405180910390fd5b80600560008573ffffffffffffffffffffffffffffffffffffffff1673ffffffffffffffffffffffffffffffffffffffff16815260200190815260200160002060008473ffffffffffffffffffffffffffffffffffffffff1673ffffffffffffffffffffffffffffffffffffffff16815260200190815260200160002060006101000a81548160ff0219169083151502179055508173ffffffffffffffffffffffffffffffffffffffff168373ffffffffffffffffffffffffffffffffffffffff167f17307eab39ab6107e8899845ad3d59bd9653f200f220920489ca2b5937696c318360405161199e9190611fbc565b60405180910390a3505050565b6119b6848484611104565b6119c284848484611b3d565b611a01576040517f08c379a00000000000000000000000000000000000000000000000000000000081526004016119f890613153565b60405180910390fd5b50505050565b606060405180602001604052806000815250905090565b6060611a2982610f63565b6000611a33611a07565b90506000815111611a535760405180602001604052806000815250611a7e565b80611a5d84611cc4565b604051602001611a6e929190612a47565b6040516020818303038152906040525b915050919050565b60007f01ffc9a7000000000000000000000000000000000000000000000000000000007bffffffffffffffffffffffffffffffffffffffffffffffffffffffff1916827bffffffffffffffffffffffffffffffffffffffffffffffffffffffff1916149050919050565b60008073ffffffffffffffffffffffffffffffffffffffff16611b12836116be565b73ffffffffffffffffffffffffffffffffffffffff1614159050919050565b50505050565b50505050565b6000611b5e8473ffffffffffffffffffffffffffffffffffffffff16611d92565b15611cb7578373ffffffffffffffffffffffffffffffffffffffff1663150b7a02611b87610fae565b8786866040518563ffffffff1660e01b8152600401611ba994939291906131c8565b6020604051808303816000875af1925050508015611be557506040513d601f19601f82011682018060405250810190611be29190613229565b60015b611c67573d8060008114611c15576040519150601f19603f3d011682016040523d82523d6000602084013e611c1a565b606091505b506000815103611c5f576040517f08c379a0000000000000000000000000000000000000000000000000000000008152600401611c5690613153565b60405180910390fd5b805181602001fd5b63150b7a0260e01b7bffffffffffffffffffffffffffffffffffffffffffffffffffffffff1916817bffffffffffffffffffffffffffffffffffffffffffffffffffffffff191614915050611cbc565b600190505b949350505050565b606060006001611cd384611db5565b01905060008167ffffffffffffffff811115611cf257611cf161223e565b5b6040519080825280601f01601f191660200182016040528015611d245781602001600182028036833780820191505090505b509050600082602001820190505b600115611d87578080600190039150507f3031323334353637383961626364656600000000000000000000000000000000600a86061a8153600a8581611d7b57611d7a613256565b5b04945060008503611d32575b819350505050919050565b6000808273ffffffffffffffffffffffffffffffffffffffff163b119050919050565b600080600090507a184f03e93ff9f4daa797ed6e38ed64bf6a1f0100000000000000008310611e13577a184f03e93ff9f4daa797ed6e38ed64bf6a1f0100000000000000008381611e0957611e08613256565b5b0492506040810190505b6d04ee2d6d415b85acef81000000008310611e50576d04ee2d6d415b85acef81000000008381611e4657611e45613256565b5b0492506020810190505b662386f26fc100008310611e7f57662386f26fc100008381611e7557611e74613256565b5b0492506010810190505b6305f5e1008310611ea8576305f5e1008381611e9e57611e9d613256565b5b0492506008810190505b6127108310611ecd576127108381611ec357611ec2613256565b5b0492506004810190505b60648310611ef05760648381611ee657611ee5613256565b5b0492506002810190505b600a8310611eff576001810190505b80915050919050565b6000604051905090565b600080fd5b600080fd5b60007fffffffff0000000000000000000000000000000000000000000000000000000082169050919050565b611f5181611f1c565b8114611f5c57600080fd5b50565b600081359050611f6e81611f48565b92915050565b600060208284031215611f8a57611f89611f12565b5b6000611f9884828501611f5f565b91505092915050565b60008115159050919050565b611fb681611fa1565b82525050565b6000602082019050611fd16000830184611fad565b92915050565b600081519050919050565b600082825260208201905092915050565b60005b83811015612011578082015181840152602081019050611ff6565b60008484015250505050565b6000601f19601f8301169050919050565b600061203982611fd7565b6120438185611fe2565b9350612053818560208601611ff3565b61205c8161201d565b840191505092915050565b60006020820190508181036000830152612081818461202e565b905092915050565b6000819050919050565b61209c81612089565b81146120a757600080fd5b50565b6000813590506120b981612093565b92915050565b6000602082840312156120d5576120d4611f12565b5b60006120e3848285016120aa565b91505092915050565b600073ffffffffffffffffffffffffffffffffffffffff82169050919050565b6000612117826120ec565b9050919050565b6121278161210c565b82525050565b6000602082019050612142600083018461211e565b92915050565b6121518161210c565b811461215c57600080fd5b50565b60008135905061216e81612148565b92915050565b6000806040838503121561218b5761218a611f12565b5b60006121998582860161215f565b92505060206121aa858286016120aa565b9150509250929050565b6000602082840312156121ca576121c9611f12565b5b60006121d88482850161215f565b91505092915050565b6000806000606084860312156121fa576121f9611f12565b5b60006122088682870161215f565b93505060206122198682870161215f565b925050604061222a868287016120aa565b9150509250925092565b600080fd5b600080fd5b7f4e487b7100000000000000000000000000000000000000000000000000000000600052604160045260246000fd5b6122768261201d565b810181811067ffffffffffffffff821117156122955761229461223e565b5b80604052505050565b60006122a8611f08565b90506122b4828261226d565b919050565b600067ffffffffffffffff8211156122d4576122d361223e565b5b6122dd8261201d565b9050602081019050919050565b82818337600083830152505050565b600061230c612307846122b9565b61229e565b90508281526020810184848401111561232857612327612239565b5b6123338482856122ea565b509392505050565b600082601f8301126123505761234f612234565b5b81356123608482602086016122f9565b91505092915050565b60008060006060848603121561238257612381611f12565b5b60006123908682870161215f565b935050602084013567ffffffffffffffff8111156123b1576123b0611f17565b5b6123bd8682870161233b565b925050604084013567ffffffffffffffff8111156123de576123dd611f17565b5b6123ea8682870161233b565b9150509250925092565b6123fd81612089565b82525050565b600060208201905061241860008301846123f4565b92915050565b61242781611fa1565b811461243257600080fd5b50565b6000813590506124448161241e565b92915050565b6000806040838503121561246157612460611f12565b5b600061246f8582860161215f565b925050602061248085828601612435565b9150509250929050565b600067ffffffffffffffff8211156124a5576124a461223e565b5b6124ae8261201d565b9050602081019050919050565b60006124ce6124c98461248a565b61229e565b9050828152602081018484840111156124ea576124e9612239565b5b6124f58482856122ea565b509392505050565b600082601f83011261251257612511612234565b5b81356125228482602086016124bb565b91505092915050565b6000806000806080858703121561254557612544611f12565b5b60006125538782880161215f565b94505060206125648782880161215f565b9350506040612575878288016120aa565b925050606085013567ffffffffffffffff81111561259657612595611f17565b5b6125a2878288016124fd565b91505092959194509250565b600080604083850312156125c5576125c4611f12565b5b60006125d38582860161215f565b92505060206125e48582860161215f565b9150509250929050565b7f4e487b7100000000000000000000000000000000000000000000000000000000600052602260045260246000fd5b6000600282049050600182168061263557607f821691505b602082108103612648576126476125ee565b5b50919050565b7f4552433732313a20617070726f76616c20746f2063757272656e74206f776e6560008201527f7200000000000000000000000000000000000000000000000000000000000000602082015250565b60006126aa602183611fe2565b91506126b58261264e565b604082019050919050565b600060208201905081810360008301526126d98161269d565b9050919050565b7f4552433732313a20617070726f76652063616c6c6572206973206e6f7420746f60008201527f6b656e206f776e6572206f7220617070726f76656420666f7220616c6c000000602082015250565b600061273c603d83611fe2565b9150612747826126e0565b604082019050919050565b6000602082019050818103600083015261276b8161272f565b9050919050565b7f4552433732313a2063616c6c6572206973206e6f7420746f6b656e206f776e6560008201527f72206f7220617070726f76656400000000000000000000000000000000000000602082015250565b60006127ce602d83611fe2565b91506127d982612772565b604082019050919050565b600060208201905081810360008301526127fd816127c1565b9050919050565b7f4e6f7420617574686f72697a65643a206d75737420626520612077686974656c60008201527f6973746564206f72670000000000000000000000000000000000000000000000602082015250565b6000612860602983611fe2565b915061286b82612804565b604082019050919050565b6000602082019050818103600083015261288f81612853565b9050919050565b7f4e487b7100000000000000000000000000000000000000000000000000000000600052601160045260246000fd5b60006128d082612089565b91507fffffffffffffffffffffffffffffffffffffffffffffffffffffffffffffffff820361290257612901612896565b5b600182019050919050565b7f4552433732313a20696e76616c696420746f6b656e2049440000000000000000600082015250565b6000612943601883611fe2565b915061294e8261290d565b602082019050919050565b6000602082019050818103600083015261297281612936565b9050919050565b7f4552433732313a2061646472657373207a65726f206973206e6f74206120766160008201527f6c6964206f776e65720000000000000000000000000000000000000000000000602082015250565b60006129d5602983611fe2565b91506129e082612979565b604082019050919050565b60006020820190508181036000830152612a04816129c8565b9050919050565b600081905092915050565b6000612a2182611fd7565b612a2b8185612a0b565b9350612a3b818560208601611ff3565b80840191505092915050565b6000612a538285612a16565b9150612a5f8284612a16565b91508190509392505050565b7f4f776e61626c653a206e6577206f776e657220697320746865207a65726f206160008201527f6464726573730000000000000000000000000000000000000000000000000000602082015250565b6000612ac7602683611fe2565b9150612ad282612a6b565b604082019050919050565b60006020820190508181036000830152612af681612aba565b9050919050565b7f4552433732313a207472616e736665722066726f6d20696e636f72726563742060008201527f6f776e6572000000000000000000000000000000000000000000000000000000602082015250565b6000612b59602583611fe2565b9150612b6482612afd565b604082019050919050565b60006020820190508181036000830152612b8881612b4c565b9050919050565b7f4552433732313a207472616e7366657220746f20746865207a65726f2061646460008201527f7265737300000000000000000000000000000000000000000000000000000000602082015250565b6000612beb602483611fe2565b9150612bf682612b8f565b604082019050919050565b60006020820190508181036000830152612c1a81612bde565b9050919050565b7f4552433732313a206d696e7420746f20746865207a65726f2061646472657373600082015250565b6000612c57602083611fe2565b9150612c6282612c21565b602082019050919050565b60006020820190508181036000830152612c8681612c4a565b9050919050565b7f4552433732313a20746f6b656e20616c7265616479206d696e74656400000000600082015250565b6000612cc3601c83611fe2565b9150612cce82612c8d565b602082019050919050565b60006020820190508181036000830152612cf281612cb6565b9050919050565b7f45524337323155524953746f726167653a2055524920736574206f66206e6f6e60008201527f6578697374656e7420746f6b656e000000000000000000000000000000000000602082015250565b6000612d55602e83611fe2565b9150612d6082612cf9565b604082019050919050565b60006020820190508181036000830152612d8481612d48565b9050919050565b60008190508160005260206000209050919050565b60006020601f8301049050919050565b600082821b905092915050565b600060088302612ded7fffffffffffffffffffffffffffffffffffffffffffffffffffffffffffffffff82612db0565b612df78683612db0565b95508019841693508086168417925050509392505050565b6000819050919050565b6000612e34612e2f612e2a84612089565b612e0f565b612089565b9050919050565b6000819050919050565b612e4e83612e19565b612e62612e5a82612e3b565b848454612dbd565b825550505050565b600090565b612e77612e6a565b612e82818484612e45565b505050565b5b81811015612ea657612e9b600082612e6f565b600181019050612e88565b5050565b601f821115612eeb57612ebc81612d8b565b612ec584612da0565b81016020851015612ed4578190505b612ee8612ee085612da0565b830182612e87565b50505b505050565b600082821c905092915050565b6000612f0e60001984600802612ef0565b1980831691505092915050565b6000612f278383612efd565b9150826002028217905092915050565b612f4082611fd7565b67ffffffffffffffff811115612f5957612f5861223e565b5b612f63825461261d565b612f6e828285612eaa565b600060209050601f831160018114612fa15760008415612f8f578287015190505b612f998582612f1b565b865550613001565b601f198416612faf86612d8b565b60005b82811015612fd757848901518255600182019150602085019450602081019050612fb2565b86831015612ff45784890151612ff0601f891682612efd565b8355505b6001600288020188555050505b505050505050565b7f4f776e61626c653a2063616c6c6572206973206e6f7420746865206f776e6572600082015250565b600061303f602083611fe2565b915061304a82613009565b602082019050919050565b6000602082019050818103600083015261306e81613032565b9050919050565b7f4552433732313a20617070726f766520746f2063616c6c657200000000000000600082015250565b60006130ab601983611fe2565b91506130b682613075565b602082019050919050565b600060208201905081810360008301526130da8161309e565b9050919050565b7f4552433732313a207472616e7366657220746f206e6f6e20455243373231526560008201527f63656976657220696d706c656d656e7465720000000000000000000000000000602082015250565b600061313d603283611fe2565b9150613148826130e1565b604082019050919050565b6000602082019050818103600083015261316c81613130565b9050919050565b600081519050919050565b600082825260208201905092915050565b600061319a82613173565b6131a4818561317e565b93506131b4818560208601611ff3565b6131bd8161201d565b840191505092915050565b60006080820190506131dd600083018761211e565b6131ea602083018661211e565b6131f760408301856123f4565b8181036060830152613209818461318f565b905095945050505050565b60008151905061322381611f48565b92915050565b60006020828403121561323f5761323e611f12565b5b600061324d84828501613214565b91505092915050565b7f4e487b7100000000000000000000000000000000000000000000000000000000600052601260045260246000fdfea26469706673582212201b8539007a81ee1747053cf008a032fc27cbda3230a509b0284e071e9ad0325664736f6c63430008140033",
  "linkReferences": {},
  "deployedLinkReferences": {}
}