{
  "_format": "hh-sol-artifact-1",
  "contractName": "ResumeNFT",
  "sourceName": "contracts/ResumeNFT.sol",
  "abi": [
    {
      "inputs": [],
      "stateMutability": "nonpayable",
      "type": "constructor"
    },
    {
      "anonymous": false,
      "inputs": [
        {
          "indexed": true,
          "internalType": "address",
          "name": "owner",
          "type": "address"
        },
        {
          "indexed": true,
          "internalType": "address",
          "name": "approved",
          "type": "address"
        },
        {
          "indexed": true,
          "internalType": "uint256",
          "name": "tokenId",
          "type": "uint256"
        }
      ],
      "name": "Approval",
      "type": "event"
    },
    {
      "anonymous": false,
      "inputs": [
        {
          "indexed": true,
          "internalType": "address",
          "name": "owner",
          "type": "address"
        },
        {
          "indexed": true,
          "internalType": "address",
          "name": "operator",
          "type": "address"
        },
        {
          "indexed": false,
          "internalType": "bool",
          "name": "approved",
          "type": "bool"
        }
      ],
      "name": "ApprovalForAll",
      "type": "event"
    },
    {
      "anonymous": false,
      "inputs": [
        {
          "indexed": false,
          "internalType": "uint256",
          "name": "_fromTokenId",
          "type": "uint256"
        },
        {
          "indexed": false,
          "internalType": "uint256",
          "name": "_toTokenId",
          "type": "uint256"
        }
      ],
      "name": "BatchMetadataUpdate",
      "type": "event"
    },
    {
      "anonymous": false,
      "inputs": [
        {
          "indexed": false,
          "internalType": "uint256",
          "name": "_tokenId",
          "type": "uint256"
        }
      ],
      "name": "MetadataUpdate",
      "type": "event"
    },
    {
      "anonymous": false,
      "inputs": [
        {
          "indexed": true,
          "internalType": "address",
          "name": "previousOwner",
          "type": "address"
        },
        {
          "indexed": true,
          "internalType": "address",
          "name": "newOwner",
          "type": "address"
        }
      ],
      "name": "OwnershipTransferred",
      "type": "event"
    },
    {
      "anonymous": false,
      "inputs": [
        {
          "indexed": true,
          "internalType": "address",
          "name": "from",
          "type": "address"
        },
        {
          "indexed": true,
          "internalType": "address",
          "name": "to",
          "type": "address"
        },
        {
          "indexed": true,
          "internalType": "uint256",
          "name": "tokenId",
          "type": "uint256"
        }
      ],
      "name": "Transfer",
      "type": "event"
    },
    {
      "inputs": [
        {
          "internalType": "address",
          "name": "to",
          "type": "address"
        },
        {
          "internalType": "uint256",
          "name": "tokenId",
          "type": "uint256"
        }
      ],
      "name": "approve",
      "outputs": [],
      "stateMutability": "nonpayable",
      "type": "function"
    },
    {
      "inputs": [
        {
          "internalType": "address",
          "name": "owner",
          "type": "address"
        }
      ],
      "name": "balanceOf",
      "outputs": [
        {
          "internalType": "uint256",
          "name": "",
          "type": "uint256"
        }
      ],
      "stateMutability": "view",
      "type": "function"
    },
    {
      "inputs": [
        {
          "internalType": "uint256",
          "name": "tokenId",
          "type": "uint256"
        },
        {
          "internalType": "string",
          "name": "message",
          "type": "string"
        }
      ],
      "name": "endorseResume",
      "outputs": [],
      "stateMutability": "nonpayable",
      "type": "function"
    },
    {
      "inputs": [
        {
          "internalType": "uint256",
          "name": "",
          "type": "uint256"
        },
        {
          "internalType": "uint256",
          "name": "",
          "type": "uint256"
        }
      ],
      "name": "endorsements",
      "outputs": [
        {
          "internalType": "address",
          "name": "endorser",
          "type": "address"
        },
        {
          "internalType": "string",
          "name": "message",
          "type": "string"
        },
        {
          "internalType": "uint256",
          "name": "timestamp",
          "type": "uint256"
        }
      ],
      "stateMutability": "view",
      "type": "function"
    },
    {
      "inputs": [
        {
          "internalType": "uint256",
          "name": "tokenId",
          "type": "uint256"
        }
      ],
      "name": "getApproved",
      "outputs": [
        {
          "internalType": "address",
          "name": "",
          "type": "address"
        }
      ],
      "stateMutability": "view",
      "type": "function"
    },
    {
      "inputs": [
        {
          "internalType": "uint256",
          "name": "tokenId",
          "type": "uint256"
        }
      ],
      "name": "getEndorsements",
      "outputs": [
        {
          "components": [
            {
              "internalType": "address",
              "name": "endorser",
              "type": "address"
            },
            {
              "internalType": "string",
              "name": "message",
              "type": "string"
            },
            {
              "internalType": "uint256",
              "name": "timestamp",
              "type": "uint256"
            }
          ],
          "internalType": "struct ResumeNFT.Endorsement[]",
          "name": "",
          "type": "tuple[]"
        }
      ],
      "stateMutability": "view",
      "type": "function"
    },
    {
      "inputs": [
        {
          "internalType": "address",
          "name": "owner",
          "type": "address"
        },
        {
          "internalType": "address",
          "name": "operator",
          "type": "address"
        }
      ],
      "name": "isApprovedForAll",
      "outputs": [
        {
          "internalType": "bool",
          "name": "",
          "type": "bool"
        }
      ],
      "stateMutability": "view",
      "type": "function"
    },
    {
      "inputs": [
        {
          "internalType": "address",
          "name": "to",
          "type": "address"
        },
        {
          "internalType": "string",
          "name": "uri",
          "type": "string"
        },
        {
          "internalType": "bytes32",
          "name": "resumeHash",
          "type": "bytes32"
        }
      ],
      "name": "mintResume",
      "outputs": [
        {
          "internalType": "uint256",
          "name": "",
          "type": "uint256"
        }
      ],
      "stateMutability": "nonpayable",
      "type": "function"
    },
    {
      "inputs": [],
      "name": "name",
      "outputs": [
        {
          "internalType": "string",
          "name": "",
          "type": "string"
        }
      ],
      "stateMutability": "view",
      "type": "function"
    },
    {
      "inputs": [],
      "name": "nextTokenId",
      "outputs": [
        {
          "internalType": "uint256",
          "name": "",
          "type": "uint256"
        }
      ],
      "stateMutability": "view",
      "type": "function"
    },
    {
      "inputs": [],
      "name": "owner",
      "outputs": [
        {
          "internalType": "address",
          "name": "",
          "type": "address"
        }
      ],
      "stateMutability": "view",
      "type": "function"
    },
    {
      "inputs": [
        {
          "internalType": "uint256",
          "name": "tokenId",
          "type": "uint256"
        }
      ],
      "name": "ownerOf",
      "outputs": [
        {
          "internalType": "address",
          "name": "",
          "type": "address"
        }
      ],
      "stateMutability": "view",
      "type": "function"
    },
    {
      "inputs": [],
      "name": "renounceOwnership",
      "outputs": [],
      "stateMutability": "nonpayable",
      "type": "function"
    },
    {
      "inputs": [
        {
          "internalType": "uint256",
          "name": "",
          "type": "uint256"
        }
      ],
      "name": "resumeHashes",
      "outputs": [
        {
          "internalType": "bytes32",
          "name": "",
          "type": "bytes32"
        }
      ],
      "stateMutability": "view",
      "type": "function"
    },
    {
      "inputs": [
        {
          "internalType": "address",
          "name": "from",
          "type": "address"
        },
        {
          "internalType": "address",
          "name": "to",
          "type": "address"
        },
        {
          "internalType": "uint256",
          "name": "tokenId",
          "type": "uint256"
        }
      ],
      "name": "safeTransferFrom",
      "outputs": [],
      "stateMutability": "nonpayable",
      "type": "function"
    },
    {
      "inputs": [
        {
          "internalType": "address",
          "name": "from",
          "type": "address"
        },
        {
          "internalType": "address",
          "name": "to",
          "type": "address"
        },
        {
          "internalType": "uint256",
          "name": "tokenId",
          "type": "uint256"
        },
        {
          "internalType": "bytes",
          "name": "data",
          "type": "bytes"
        }
      ],
      "name": "safeTransferFrom",
      "outputs": [],
      "stateMutability": "nonpayable",
      "type": "function"
    },
    {
      "inputs": [
        {
          "internalType": "address",
          "name": "operator",
          "type": "address"
        },
        {
          "internalType": "bool",
          "name": "approved",
          "type": "bool"
        }
      ],
      "name": "setApprovalForAll",
      "outputs": [],
      "stateMutability": "nonpayable",
      "type": "function"
    },
    {
      "inputs": [
        {
          "internalType": "bytes4",
          "name": "interfaceId",
          "type": "bytes4"
        }
      ],
      "name": "supportsInterface",
      "outputs": [
        {
          "internalType": "bool",
          "name": "",
          "type": "bool"
        }
      ],
      "stateMutability": "view",
      "type": "function"
    },
    {
      "inputs": [],
      "name": "symbol",
      "outputs": [
        {
          "internalType": "string",
          "name": "",
          "type": "string"
        }
      ],
      "stateMutability": "view",
      "type": "function"
    },
    {
      "inputs": [
        {
          "internalType": "uint256",
          "name": "tokenId",
          "type": "uint256"
        }
      ],
      "name": "tokenURI",
      "outputs": [
        {
          "internalType": "string",
          "name": "",
          "type": "string"
        }
      ],
      "stateMutability": "view",
      "type": "function"
    },
    {
      "inputs": [
        {
          "internalType": "address",
          "name": "from",
          "type": "address"
        },
        {
          "internalType": "address",
          "name": "to",
          "type": "address"
        },
        {
          "internalType": "uint256",
          "name": "tokenId",
          "type": "uint256"
        }
      ],
      "name": "transferFrom",
      "outputs": [],
      "stateMutability": "nonpayable",
      "type": "function"
    },
    {
      "inputs": [
        {
          "internalType": "address",
          "name": "newOwner",
          "type": "address"
        }
      ],
      "name": "transferOwnership",
      "outputs": [],
      "stateMutability": "nonpayable",
      "type": "function"
    },
    {
      "inputs": [
        {
          "internalType": "uint256",
          "name": "tokenId",
          "type": "uint256"
        },
        {
          "internalType": "bytes32",
          "name": "hash",
          "type": "bytes32"
        }
      ],
      "name": "verifyResume",
      "outputs": [
        {
          "internalType": "bool",
          "name": "",
          "type": "bool"
        }
      ],
      "stateMutability": "view",
      "type": "function"
    }
  ],
  "bytecode": "0x608060405260016008553480156200001657600080fd5b506040518060400160405280600981526020017f526573756d654e465400000000000000000000000000000000000000000000008152506040518060400160405280600681526020017f524553554d450000000000000000000000000000000000000000000000000000815250816000908162000094919062000417565b508060019081620000a6919062000417565b505050620000c9620000bd620000cf60201b60201c565b620000d760201b60201c565b620004fe565b600033905090565b6000600760009054906101000a900473ffffffffffffffffffffffffffffffffffffffff16905081600760006101000a81548173ffffffffffffffffffffffffffffffffffffffff021916908373ffffffffffffffffffffffffffffffffffffffff1602179055508173ffffffffffffffffffffffffffffffffffffffff168173ffffffffffffffffffffffffffffffffffffffff167f8be0079c531659141344cd1fd0a4f28419497f9722a3daafe3b4186f6b6457e060405160405180910390a35050565b600081519050919050565b7f4e487b7100000000000000000000000000000000000000000000000000000000600052604160045260246000fd5b7f4e487b7100000000000000000000000000000000000000000000000000000000600052602260045260246000fd5b600060028204905060018216806200021f57607f821691505b602082108103620002355762000234620001d7565b5b50919050565b60008190508160005260206000209050919050565b60006020601f8301049050919050565b600082821b905092915050565b6000600883026200029f7fffffffffffffffffffffffffffffffffffffffffffffffffffffffffffffffff8262000260565b620002ab868362000260565b95508019841693508086168417925050509392505050565b6000819050919050565b6000819050919050565b6000620002f8620002f2620002ec84620002c3565b620002cd565b620002c3565b9050919050565b6000819050919050565b6200031483620002d7565b6200032c6200032382620002ff565b8484546200026d565b825550505050565b600090565b6200034362000334565b6200035081848462000309565b505050565b5b8181101562000378576200036c60008262000339565b60018101905062000356565b5050565b601f821115620003c75762000391816200023b565b6200039c8462000250565b81016020851015620003ac578190505b620003c4620003bb8562000250565b83018262000355565b50505b505050565b600082821c905092915050565b6000620003ec60001984600802620003cc565b1980831691505092915050565b6000620004078383620003d9565b9150826002028217905092915050565b62000422826200019d565b67ffffffffffffffff8111156200043e576200043d620001a8565b5b6200044a825462000206565b620004578282856200037c565b600060209050601f8311600181146200048f57600084156200047a578287015190505b620004868582620003f9565b865550620004f6565b601f1984166200049f866200023b565b60005b82811015620004c957848901518255600182019150602085019450602081019050620004a2565b86831015620004e95784890151620004e5601f891682620003d9565b8355505b6001600288020188555050505b505050505050565b613b8e806200050e6000396000f3fe608060405234801561001057600080fd5b506004361061014d5760003560e01c806375794a3c116100c3578063a22cb4651161007c578063a22cb465146103da578063a233aa52146103f6578063b88d4fde14610412578063c87b56dd1461042e578063e985e9c51461045e578063f2fde38b1461048e5761014d565b806375794a3c146102ee57806388b842181461030c5780638da5cb5b1461033c57806395d89b411461035a578063a06a14a614610378578063a1d29e3f146103aa5761014d565b806323b872dd1161011557806323b872dd1461021c57806331121e6d1461023857806342842e0e146102685780636352211e1461028457806370a08231146102b4578063715018a6146102e45761014d565b806301ffc9a71461015257806306fdde0314610182578063081812fc146101a0578063095ea7b3146101d05780631f2a8d60146101ec575b600080fd5b61016c60048036038101906101679190612420565b6104aa565b6040516101799190612468565b60405180910390f35b61018a6104bc565b6040516101979190612513565b60405180910390f35b6101ba60048036038101906101b5919061256b565b61054e565b6040516101c791906125d9565b60405180910390f35b6101ea60048036038101906101e59190612620565b610594565b005b610206600480360381019061020191906127cb565b6106ab565b6040516102139190612849565b60405180910390f35b61023660048036038101906102319190612864565b610702565b005b610252600480360381019061024d91906128b7565b610762565b60405161025f9190612468565b60405180910390f35b610282600480360381019061027d9190612864565b610782565b005b61029e6004803603810190610299919061256b565b6107a2565b6040516102ab91906125d9565b60405180910390f35b6102ce60048036038101906102c991906128f7565b610828565b6040516102db9190612849565b60405180910390f35b6102ec6108df565b005b6102f66108f3565b6040516103039190612849565b60405180910390f35b6103266004803603810190610321919061256b565b6108f9565b6040516103339190612a9e565b60405180910390f35b610344610a5d565b60405161035191906125d9565b60405180910390f35b610362610a87565b60405161036f9190612513565b60405180910390f35b610392600480360381019061038d9190612ac0565b610b19565b6040516103a193929190612b00565b60405180910390f35b6103c460048036038101906103bf919061256b565b610c08565b6040516103d19190612b4d565b60405180910390f35b6103f460048036038101906103ef9190612b94565b610c20565b005b610410600480360381019061040b9190612bd4565b610c36565b005b61042c60048036038101906104279190612cd1565b610e47565b005b6104486004803603810190610443919061256b565b610ea9565b6040516104559190612513565b60405180910390f35b61047860048036038101906104739190612d54565b610ebb565b6040516104859190612468565b60405180910390f35b6104a860048036038101906104a391906128f7565b610f4f565b005b60006104b582610fd2565b9050919050565b6060600080546104cb90612dc3565b80601f01602080910402602001604051908101604052809291908181526020018280546104f790612dc3565b80156105445780601f1061051957610100808354040283529160200191610544565b820191906000526020600020905b81548152906001019060200180831161052757829003601f168201915b5050505050905090565b600061055982611033565b6004600083815260200190815260200160002060009054906101000a900473ffffffffffffffffffffffffffffffffffffffff169050919050565b600061059f826107a2565b90508073ffffffffffffffffffffffffffffffffffffffff168373ffffffffffffffffffffffffffffffffffffffff160361060f576040517f08c379a000000000000000000000000000000000000000000000000000000000815260040161060690612e66565b60405180910390fd5b8073ffffffffffffffffffffffffffffffffffffffff1661062e61107e565b73ffffffffffffffffffffffffffffffffffffffff16148061065d575061065c8161065761107e565b610ebb565b5b61069c576040517f08c379a000000000000000000000000000000000000000000000000000000000815260040161069390612ef8565b60405180910390fd5b6106a68383611086565b505050565b60008060085490506106bd858261113f565b6106c7818561135c565b826009600083815260200190815260200160002081905550600860008154809291906106f290612f47565b9190505550809150509392505050565b61071361070d61107e565b82611400565b610752576040517f08c379a000000000000000000000000000000000000000000000000000000000815260040161074990613001565b60405180910390fd5b61075d838383611495565b505050565b600081600960008581526020019081526020016000205414905092915050565b61079d83838360405180602001604052806000815250610e47565b505050565b6000806107ae8361178e565b9050600073ffffffffffffffffffffffffffffffffffffffff168173ffffffffffffffffffffffffffffffffffffffff160361081f576040517f08c379a00000000000000000000000000000000000000000000000000000000081526004016108169061306d565b60405180910390fd5b80915050919050565b60008073ffffffffffffffffffffffffffffffffffffffff168273ffffffffffffffffffffffffffffffffffffffff1603610898576040517f08c379a000000000000000000000000000000000000000000000000000000000815260040161088f906130ff565b60405180910390fd5b600360008373ffffffffffffffffffffffffffffffffffffffff1673ffffffffffffffffffffffffffffffffffffffff168152602001908152602001600020549050919050565b6108e76117cb565b6108f16000611849565b565b60085481565b6060600a6000838152602001908152602001600020805480602002602001604051908101604052809291908181526020016000905b82821015610a5257838290600052602060002090600302016040518060600160405290816000820160009054906101000a900473ffffffffffffffffffffffffffffffffffffffff1673ffffffffffffffffffffffffffffffffffffffff1673ffffffffffffffffffffffffffffffffffffffff1681526020016001820180546109b790612dc3565b80601f01602080910402602001604051908101604052809291908181526020018280546109e390612dc3565b8015610a305780601f10610a0557610100808354040283529160200191610a30565b820191906000526020600020905b815481529060010190602001808311610a1357829003601f168201915b505050505081526020016002820154815250508152602001906001019061092e565b505050509050919050565b6000600760009054906101000a900473ffffffffffffffffffffffffffffffffffffffff16905090565b606060018054610a9690612dc3565b80601f0160208091040260200160405190810160405280929190818152602001828054610ac290612dc3565b8015610b0f5780601f10610ae457610100808354040283529160200191610b0f565b820191906000526020600020905b815481529060010190602001808311610af257829003601f168201915b5050505050905090565b600a6020528160005260406000208181548110610b3557600080fd5b9060005260206000209060030201600091509150508060000160009054906101000a900473ffffffffffffffffffffffffffffffffffffffff1690806001018054610b7f90612dc3565b80601f0160208091040260200160405190810160405280929190818152602001828054610bab90612dc3565b8015610bf85780601f10610bcd57610100808354040283529160200191610bf8565b820191906000526020600020905b815481529060010190602001808311610bdb57829003601f168201915b5050505050908060020154905083565b60096020528060005260406000206000915090505481565b610c32610c2b61107e565b838361190f565b5050565b600073ffffffffffffffffffffffffffffffffffffffff16610c578361178e565b73ffffffffffffffffffffffffffffffffffffffff1603610cad576040517f08c379a0000000000000000000000000000000000000000000000000000000008152600401610ca49061316b565b60405180910390fd5b610cb6826107a2565b73ffffffffffffffffffffffffffffffffffffffff163373ffffffffffffffffffffffffffffffffffffffff1603610d23576040517f08c379a0000000000000000000000000000000000000000000000000000000008152600401610d1a906131fd565b60405180910390fd5b610d2d8233611a7b565b15610d6d576040517f08c379a0000000000000000000000000000000000000000000000000000000008152600401610d649061328f565b60405180910390fd5b600a600083815260200190815260200160002060405180606001604052803373ffffffffffffffffffffffffffffffffffffffff16815260200183815260200142815250908060018154018082558091505060019003906000526020600020906003020160009091909190915060008201518160000160006101000a81548173ffffffffffffffffffffffffffffffffffffffff021916908373ffffffffffffffffffffffffffffffffffffffff1602179055506020820151816001019081610e36919061345b565b506040820151816002015550505050565b610e58610e5261107e565b83611400565b610e97576040517f08c379a0000000000000000000000000000000000000000000000000000000008152600401610e8e90613001565b60405180910390fd5b610ea384848484611c63565b50505050565b6060610eb482611cbf565b9050919050565b6000600560008473ffffffffffffffffffffffffffffffffffffffff1673ffffffffffffffffffffffffffffffffffffffff16815260200190815260200160002060008373ffffffffffffffffffffffffffffffffffffffff1673ffffffffffffffffffffffffffffffffffffffff16815260200190815260200160002060009054906101000a900460ff16905092915050565b610f576117cb565b600073ffffffffffffffffffffffffffffffffffffffff168173ffffffffffffffffffffffffffffffffffffffff1603610fc6576040517f08c379a0000000000000000000000000000000000000000000000000000000008152600401610fbd9061359f565b60405180910390fd5b610fcf81611849565b50565b6000634906490660e01b7bffffffffffffffffffffffffffffffffffffffffffffffffffffffff1916827bffffffffffffffffffffffffffffffffffffffffffffffffffffffff1916148061102c575061102b82611dd1565b5b9050919050565b61103c81611eb3565b61107b576040517f08c379a00000000000000000000000000000000000000000000000000000000081526004016110729061306d565b60405180910390fd5b50565b600033905090565b816004600083815260200190815260200160002060006101000a81548173ffffffffffffffffffffffffffffffffffffffff021916908373ffffffffffffffffffffffffffffffffffffffff160217905550808273ffffffffffffffffffffffffffffffffffffffff166110f9836107a2565b73ffffffffffffffffffffffffffffffffffffffff167f8c5be1e5ebec7d5bd14f71427d1e84f3dd0314c0f7b2291e5b200ac8c7c3b92560405160405180910390a45050565b600073ffffffffffffffffffffffffffffffffffffffff168273ffffffffffffffffffffffffffffffffffffffff16036111ae576040517f08c379a00000000000000000000000000000000000000000000000000000000081526004016111a59061360b565b60405180910390fd5b6111b781611eb3565b156111f7576040517f08c379a00000000000000000000000000000000000000000000000000000000081526004016111ee90613677565b60405180910390fd5b611205600083836001611ef4565b61120e81611eb3565b1561124e576040517f08c379a000000000000000000000000000000000000000000000000000000000815260040161124590613677565b60405180910390fd5b6001600360008473ffffffffffffffffffffffffffffffffffffffff1673ffffffffffffffffffffffffffffffffffffffff16815260200190815260200160002060008282540192505081905550816002600083815260200190815260200160002060006101000a81548173ffffffffffffffffffffffffffffffffffffffff021916908373ffffffffffffffffffffffffffffffffffffffff160217905550808273ffffffffffffffffffffffffffffffffffffffff16600073ffffffffffffffffffffffffffffffffffffffff167fddf252ad1be2c89b69c2b068fc378daa952ba7f163c4a11628f55a4df523b3ef60405160405180910390a4611358600083836001611efa565b5050565b61136582611eb3565b6113a4576040517f08c379a000000000000000000000000000000000000000000000000000000000815260040161139b90613709565b60405180910390fd5b806006600084815260200190815260200160002090816113c4919061345b565b507ff8e1a15aba9398e019f0b49df1a4fde98ee17ae345cb5f6b5e2c27f5033e8ce7826040516113f49190612849565b60405180910390a15050565b60008061140c836107a2565b90508073ffffffffffffffffffffffffffffffffffffffff168473ffffffffffffffffffffffffffffffffffffffff16148061144e575061144d8185610ebb565b5b8061148c57508373ffffffffffffffffffffffffffffffffffffffff166114748461054e565b73ffffffffffffffffffffffffffffffffffffffff16145b91505092915050565b8273ffffffffffffffffffffffffffffffffffffffff166114b5826107a2565b73ffffffffffffffffffffffffffffffffffffffff161461150b576040517f08c379a00000000000000000000000000000000000000000000000000000000081526004016115029061379b565b60405180910390fd5b600073ffffffffffffffffffffffffffffffffffffffff168273ffffffffffffffffffffffffffffffffffffffff160361157a576040517f08c379a00000000000000000000000000000000000000000000000000000000081526004016115719061382d565b60405180910390fd5b6115878383836001611ef4565b8273ffffffffffffffffffffffffffffffffffffffff166115a7826107a2565b73ffffffffffffffffffffffffffffffffffffffff16146115fd576040517f08c379a00000000000000000000000000000000000000000000000000000000081526004016115f49061379b565b60405180910390fd5b6004600082815260200190815260200160002060006101000a81549073ffffffffffffffffffffffffffffffffffffffff02191690556001600360008573ffffffffffffffffffffffffffffffffffffffff1673ffffffffffffffffffffffffffffffffffffffff168152602001908152602001600020600082825403925050819055506001600360008473ffffffffffffffffffffffffffffffffffffffff1673ffffffffffffffffffffffffffffffffffffffff16815260200190815260200160002060008282540192505081905550816002600083815260200190815260200160002060006101000a81548173ffffffffffffffffffffffffffffffffffffffff021916908373ffffffffffffffffffffffffffffffffffffffff160217905550808273ffffffffffffffffffffffffffffffffffffffff168473ffffffffffffffffffffffffffffffffffffffff167fddf252ad1be2c89b69c2b068fc378daa952ba7f163c4a11628f55a4df523b3ef60405160405180910390a46117898383836001611efa565b505050565b60006002600083815260200190815260200160002060009054906101000a900473ffffffffffffffffffffffffffffffffffffffff169050919050565b6117d361107e565b73ffffffffffffffffffffffffffffffffffffffff166117f1610a5d565b73ffffffffffffffffffffffffffffffffffffffff1614611847576040517f08c379a000000000000000000000000000000000000000000000000000000000815260040161183e90613899565b60405180910390fd5b565b6000600760009054906101000a900473ffffffffffffffffffffffffffffffffffffffff16905081600760006101000a81548173ffffffffffffffffffffffffffffffffffffffff021916908373ffffffffffffffffffffffffffffffffffffffff1602179055508173ffffffffffffffffffffffffffffffffffffffff168173ffffffffffffffffffffffffffffffffffffffff167f8be0079c531659141344cd1fd0a4f28419497f9722a3daafe3b4186f6b6457e060405160405180910390a35050565b8173ffffffffffffffffffffffffffffffffffffffff168373ffffffffffffffffffffffffffffffffffffffff160361197d576040517f08c379a000000000000000000000000000000000000000000000000000000000815260040161197490613905565b60405180910390fd5b80600560008573ffffffffffffffffffffffffffffffffffffffff1673ffffffffffffffffffffffffffffffffffffffff16815260200190815260200160002060008473ffffffffffffffffffffffffffffffffffffffff1673ffffffffffffffffffffffffffffffffffffffff16815260200190815260200160002060006101000a81548160ff0219169083151502179055508173ffffffffffffffffffffffffffffffffffffffff168373ffffffffffffffffffffffffffffffffffffffff167f17307eab39ab6107e8899845ad3d59bd9653f200f220920489ca2b5937696c3183604051611a6e9190612468565b60405180910390a3505050565b600080600a6000858152602001908152602001600020805480602002602001604051908101604052809291908181526020016000905b82821015611bd557838290600052602060002090600302016040518060600160405290816000820160009054906101000a900473ffffffffffffffffffffffffffffffffffffffff1673ffffffffffffffffffffffffffffffffffffffff1673ffffffffffffffffffffffffffffffffffffffff168152602001600182018054611b3a90612dc3565b80601f0160208091040260200160405190810160405280929190818152602001828054611b6690612dc3565b8015611bb35780601f10611b8857610100808354040283529160200191611bb3565b820191906000526020600020905b815481529060010190602001808311611b9657829003601f168201915b5050505050815260200160028201548152505081526020019060010190611ab1565b50505050905060005b8151811015611c56578373ffffffffffffffffffffffffffffffffffffffff16828281518110611c1157611c10613925565b5b60200260200101516000015173ffffffffffffffffffffffffffffffffffffffff1603611c4357600192505050611c5d565b8080611c4e90612f47565b915050611bde565b5060009150505b92915050565b611c6e848484611495565b611c7a84848484611f00565b611cb9576040517f08c379a0000000000000000000000000000000000000000000000000000000008152600401611cb0906139c6565b60405180910390fd5b50505050565b6060611cca82611033565b6000600660008481526020019081526020016000208054611cea90612dc3565b80601f0160208091040260200160405190810160405280929190818152602001828054611d1690612dc3565b8015611d635780601f10611d3857610100808354040283529160200191611d63565b820191906000526020600020905b815481529060010190602001808311611d4657829003601f168201915b505050505090506000611d74612087565b90506000815103611d89578192505050611dcc565b600082511115611dbe578082604051602001611da6929190613a22565b60405160208183030381529060405292505050611dcc565b611dc78461209e565b925050505b919050565b60007f80ac58cd000000000000000000000000000000000000000000000000000000007bffffffffffffffffffffffffffffffffffffffffffffffffffffffff1916827bffffffffffffffffffffffffffffffffffffffffffffffffffffffff19161480611e9c57507f5b5e139f000000000000000000000000000000000000000000000000000000007bffffffffffffffffffffffffffffffffffffffffffffffffffffffff1916827bffffffffffffffffffffffffffffffffffffffffffffffffffffffff1916145b80611eac5750611eab82612106565b5b9050919050565b60008073ffffffffffffffffffffffffffffffffffffffff16611ed58361178e565b73ffffffffffffffffffffffffffffffffffffffff1614159050919050565b50505050565b50505050565b6000611f218473ffffffffffffffffffffffffffffffffffffffff16612170565b1561207a578373ffffffffffffffffffffffffffffffffffffffff1663150b7a02611f4a61107e565b8786866040518563ffffffff1660e01b8152600401611f6c9493929190613a9b565b6020604051808303816000875af1925050508015611fa857506040513d601f19601f82011682018060405250810190611fa59190613afc565b60015b61202a573d8060008114611fd8576040519150601f19603f3d011682016040523d82523d6000602084013e611fdd565b606091505b506000815103612022576040517f08c379a0000000000000000000000000000000000000000000000000000000008152600401612019906139c6565b60405180910390fd5b805181602001fd5b63150b7a0260e01b7bffffffffffffffffffffffffffffffffffffffffffffffffffffffff1916817bffffffffffffffffffffffffffffffffffffffffffffffffffffffff19161491505061207f565b600190505b949350505050565b606060405180602001604052806000815250905090565b60606120a982611033565b60006120b3612087565b905060008151116120d357604051806020016040528060008152506120fe565b806120dd84612193565b6040516020016120ee929190613a22565b6040516020818303038152906040525b915050919050565b60007f01ffc9a7000000000000000000000000000000000000000000000000000000007bffffffffffffffffffffffffffffffffffffffffffffffffffffffff1916827bffffffffffffffffffffffffffffffffffffffffffffffffffffffff1916149050919050565b6000808273ffffffffffffffffffffffffffffffffffffffff163b119050919050565b6060600060016121a284612261565b01905060008167ffffffffffffffff8111156121c1576121c061266a565b5b6040519080825280601f01601f1916602001820160405280156121f35781602001600182028036833780820191505090505b509050600082602001820190505b600115612256578080600190039150507f3031323334353637383961626364656600000000000000000000000000000000600a86061a8153600a858161224a57612249613b29565b5b04945060008503612201575b819350505050919050565b600080600090507a184f03e93ff9f4daa797ed6e38ed64bf6a1f01000000000000000083106122bf577a184f03e93ff9f4daa797ed6e38ed64bf6a1f01000000000000000083816122b5576122b4613b29565b5b0492506040810190505b6d04ee2d6d415b85acef810000000083106122fc576d04ee2d6d415b85acef810000000083816122f2576122f1613b29565b5b0492506020810190505b662386f26fc10000831061232b57662386f26fc10000838161232157612320613b29565b5b0492506010810190505b6305f5e1008310612354576305f5e100838161234a57612349613b29565b5b0492506008810190505b612710831061237957612710838161236f5761236e613b29565b5b0492506004810190505b6064831061239c576064838161239257612391613b29565b5b0492506002810190505b600a83106123ab576001810190505b80915050919050565b6000604051905090565b600080fd5b600080fd5b60007fffffffff0000000000000000000000000000000000000000000000000000000082169050919050565b6123fd816123c8565b811461240857600080fd5b50565b60008135905061241a816123f4565b92915050565b600060208284031215612436576124356123be565b5b60006124448482850161240b565b91505092915050565b60008115159050919050565b6124628161244d565b82525050565b600060208201905061247d6000830184612459565b92915050565b600081519050919050565b600082825260208201905092915050565b60005b838110156124bd5780820151818401526020810190506124a2565b60008484015250505050565b6000601f19601f8301169050919050565b60006124e582612483565b6124ef818561248e565b93506124ff81856020860161249f565b612508816124c9565b840191505092915050565b6000602082019050818103600083015261252d81846124da565b905092915050565b6000819050919050565b61254881612535565b811461255357600080fd5b50565b6000813590506125658161253f565b92915050565b600060208284031215612581576125806123be565b5b600061258f84828501612556565b91505092915050565b600073ffffffffffffffffffffffffffffffffffffffff82169050919050565b60006125c382612598565b9050919050565b6125d3816125b8565b82525050565b60006020820190506125ee60008301846125ca565b92915050565b6125fd816125b8565b811461260857600080fd5b50565b60008135905061261a816125f4565b92915050565b60008060408385031215612637576126366123be565b5b60006126458582860161260b565b925050602061265685828601612556565b9150509250929050565b600080fd5b600080fd5b7f4e487b7100000000000000000000000000000000000000000000000000000000600052604160045260246000fd5b6126a2826124c9565b810181811067ffffffffffffffff821117156126c1576126c061266a565b5b80604052505050565b60006126d46123b4565b90506126e08282612699565b919050565b600067ffffffffffffffff821115612700576126ff61266a565b5b612709826124c9565b9050602081019050919050565b82818337600083830152505050565b6000612738612733846126e5565b6126ca565b90508281526020810184848401111561275457612753612665565b5b61275f848285612716565b509392505050565b600082601f83011261277c5761277b612660565b5b813561278c848260208601612725565b91505092915050565b6000819050919050565b6127a881612795565b81146127b357600080fd5b50565b6000813590506127c58161279f565b92915050565b6000806000606084860312156127e4576127e36123be565b5b60006127f28682870161260b565b935050602084013567ffffffffffffffff811115612813576128126123c3565b5b61281f86828701612767565b9250506040612830868287016127b6565b9150509250925092565b61284381612535565b82525050565b600060208201905061285e600083018461283a565b92915050565b60008060006060848603121561287d5761287c6123be565b5b600061288b8682870161260b565b935050602061289c8682870161260b565b92505060406128ad86828701612556565b9150509250925092565b600080604083850312156128ce576128cd6123be565b5b60006128dc85828601612556565b92505060206128ed858286016127b6565b9150509250929050565b60006020828403121561290d5761290c6123be565b5b600061291b8482850161260b565b91505092915050565b600081519050919050565b600082825260208201905092915050565b6000819050602082019050919050565b612959816125b8565b82525050565b600082825260208201905092915050565b600061297b82612483565b612985818561295f565b935061299581856020860161249f565b61299e816124c9565b840191505092915050565b6129b281612535565b82525050565b60006060830160008301516129d06000860182612950565b50602083015184820360208601526129e88282612970565b91505060408301516129fd60408601826129a9565b508091505092915050565b6000612a1483836129b8565b905092915050565b6000602082019050919050565b6000612a3482612924565b612a3e818561292f565b935083602082028501612a5085612940565b8060005b85811015612a8c5784840389528151612a6d8582612a08565b9450612a7883612a1c565b925060208a01995050600181019050612a54565b50829750879550505050505092915050565b60006020820190508181036000830152612ab88184612a29565b905092915050565b60008060408385031215612ad757612ad66123be565b5b6000612ae585828601612556565b9250506020612af685828601612556565b9150509250929050565b6000606082019050612b1560008301866125ca565b8181036020830152612b2781856124da565b9050612b36604083018461283a565b949350505050565b612b4781612795565b82525050565b6000602082019050612b626000830184612b3e565b92915050565b612b718161244d565b8114612b7c57600080fd5b50565b600081359050612b8e81612b68565b92915050565b60008060408385031215612bab57612baa6123be565b5b6000612bb98582860161260b565b9250506020612bca85828601612b7f565b9150509250929050565b60008060408385031215612beb57612bea6123be565b5b6000612bf985828601612556565b925050602083013567ffffffffffffffff811115612c1a57612c196123c3565b5b612c2685828601612767565b9150509250929050565b600067ffffffffffffffff821115612c4b57612c4a61266a565b5b612c54826124c9565b9050602081019050919050565b6000612c74612c6f84612c30565b6126ca565b905082815260208101848484011115612c9057612c8f612665565b5b612c9b848285612716565b509392505050565b600082601f830112612cb857612cb7612660565b5b8135612cc8848260208601612c61565b91505092915050565b60008060008060808587031215612ceb57612cea6123be565b5b6000612cf98782880161260b565b9450506020612d0a8782880161260b565b9350506040612d1b87828801612556565b925050606085013567ffffffffffffffff811115612d3c57612d3b6123c3565b5b612d4887828801612ca3565b91505092959194509250565b60008060408385031215612d6b57612d6a6123be565b5b6000612d798582860161260b565b9250506020612d8a8582860161260b565b9150509250929050565b7f4e487b7100000000000000000000000000000000000000000000000000000000600052602260045260246000fd5b60006002820490506001821680612ddb57607f821691505b602082108103612dee57612ded612d94565b5b50919050565b7f4552433732313a20617070726f76616c20746f2063757272656e74206f776e6560008201527f7200000000000000000000000000000000000000000000000000000000000000602082015250565b6000612e5060218361248e565b9150612e5b82612df4565b604082019050919050565b60006020820190508181036000830152612e7f81612e43565b9050919050565b7f4552433732313a20617070726f76652063616c6c6572206973206e6f7420746f60008201527f6b656e206f776e6572206f7220617070726f76656420666f7220616c6c000000602082015250565b6000612ee2603d8361248e565b9150612eed82612e86565b604082019050919050565b60006020820190508181036000830152612f1181612ed5565b9050919050565b7f4e487b7100000000000000000000000000000000000000000000000000000000600052601160045260246000fd5b6000612f5282612535565b91507fffffffffffffffffffffffffffffffffffffffffffffffffffffffffffffffff8203612f8457612f83612f18565b5b600182019050919050565b7f4552433732313a2063616c6c6572206973206e6f7420746f6b656e206f776e6560008201527f72206f7220617070726f76656400000000000000000000000000000000000000602082015250565b6000612feb602d8361248e565b9150612ff682612f8f565b604082019050919050565b6000602082019050818103600083015261301a81612fde565b9050919050565b7f4552433732313a20696e76616c696420746f6b656e2049440000000000000000600082015250565b600061305760188361248e565b915061306282613021565b602082019050919050565b600060208201905081810360008301526130868161304a565b9050919050565b7f4552433732313a2061646472657373207a65726f206973206e6f74206120766160008201527f6c6964206f776e65720000000000000000000000000000000000000000000000602082015250565b60006130e960298361248e565b91506130f48261308d565b604082019050919050565b60006020820190508181036000830152613118816130dc565b9050919050565b7f526573756d6520646f6573206e6f742065786973740000000000000000000000600082015250565b600061315560158361248e565b91506131608261311f565b602082019050919050565b6000602082019050818103600083015261318481613148565b9050919050565b7f596f752063616e6e6f7420656e646f72736520796f7572206f776e207265737560008201527f6d65000000000000000000000000000000000000000000000000000000000000602082015250565b60006131e760228361248e565b91506131f28261318b565b604082019050919050565b60006020820190508181036000830152613216816131da565b9050919050565b7f596f75206861766520616c726561647920656e646f727365642074686973207260008201527f6573756d65000000000000000000000000000000000000000000000000000000602082015250565b600061327960258361248e565b91506132848261321d565b604082019050919050565b600060208201905081810360008301526132a88161326c565b9050919050565b60008190508160005260206000209050919050565b60006020601f8301049050919050565b600082821b905092915050565b6000600883026133117fffffffffffffffffffffffffffffffffffffffffffffffffffffffffffffffff826132d4565b61331b86836132d4565b95508019841693508086168417925050509392505050565b6000819050919050565b600061335861335361334e84612535565b613333565b612535565b9050919050565b6000819050919050565b6133728361333d565b61338661337e8261335f565b8484546132e1565b825550505050565b600090565b61339b61338e565b6133a6818484613369565b505050565b5b818110156133ca576133bf600082613393565b6001810190506133ac565b5050565b601f82111561340f576133e0816132af565b6133e9846132c4565b810160208510156133f8578190505b61340c613404856132c4565b8301826133ab565b50505b505050565b600082821c905092915050565b600061343260001984600802613414565b1980831691505092915050565b600061344b8383613421565b9150826002028217905092915050565b61346482612483565b67ffffffffffffffff81111561347d5761347c61266a565b5b6134878254612dc3565b6134928282856133ce565b600060209050601f8311600181146134c557600084156134b3578287015190505b6134bd858261343f565b865550613525565b601f1984166134d3866132af565b60005b828110156134fb578489015182556001820191506020850194506020810190506134d6565b868310156135185784890151613514601f891682613421565b8355505b6001600288020188555050505b505050505050565b7f4f776e61626c653a206e6577206f776e657220697320746865207a65726f206160008201527f6464726573730000000000000000000000000000000000000000000000000000602082015250565b600061358960268361248e565b91506135948261352d565b604082019050919050565b600060208201905081810360008301526135b88161357c565b9050919050565b7f4552433732313a206d696e7420746f20746865207a65726f2061646472657373600082015250565b60006135f560208361248e565b9150613600826135bf565b602082019050919050565b60006020820190508181036000830152613624816135e8565b9050919050565b7f4552433732313a20746f6b656e20616c7265616479206d696e74656400000000600082015250565b6000613661601c8361248e565b915061366c8261362b565b602082019050919050565b6000602082019050818103600083015261369081613654565b9050919050565b7f45524337323155524953746f726167653a2055524920736574206f66206e6f6e60008201527f6578697374656e7420746f6b656e000000000000000000000000000000000000602082015250565b60006136f3602e8361248e565b91506136fe82613697565b604082019050919050565b60006020820190508181036000830152613722816136e6565b9050919050565b7f4552433732313a207472616e736665722066726f6d20696e636f72726563742060008201527f6f776e6572000000000000000000000000000000000000000000000000000000602082015250565b600061378560258361248e565b915061379082613729565b604082019050919050565b600060208201905081810360008301526137b481613778565b9050919050565b7f4552433732313a207472616e7366657220746f20746865207a65726f2061646460008201527f7265737300000000000000000000000000000000000000000000000000000000602082015250565b600061381760248361248e565b9150613822826137bb565b604082019050919050565b600060208201905081810360008301526138468161380a565b9050919050565b7f4f776e61626c653a2063616c6c6572206973206e6f7420746865206f776e6572600082015250565b600061388360208361248e565b915061388e8261384d565b602082019050919050565b600060208201905081810360008301526138b281613876565b9050919050565b7f4552433732313a20617070726f766520746f2063616c6c657200000000000000600082015250565b60006138ef60198361248e565b91506138fa826138b9565b602082019050919050565b6000602082019050818103600083015261391e816138e2565b9050919050565b7f4e487b7100000000000000000000000000000000000000000000000000000000600052603260045260246000fd5b7f4552433732313a207472616e7366657220746f206e6f6e20455243373231526560008201527f63656976657220696d706c656d656e7465720000000000000000000000000000602082015250565b60006139b060328361248e565b91506139bb82613954565b604082019050919050565b600060208201905081810360008301526139df816139a3565b9050919050565b600081905092915050565b60006139fc82612483565b613a0681856139e6565b9350613a1681856020860161249f565b80840191505092915050565b6000613a2e82856139f1565b9150613a3a82846139f1565b91508190509392505050565b600081519050919050565b600082825260208201905092915050565b6000613a6d82613a46565b613a778185613a51565b9350613a8781856020860161249f565b613a90816124c9565b840191505092915050565b6000608082019050613ab060008301876125ca565b613abd60208301866125ca565b613aca604083018561283a565b8181036060830152613adc8184613a62565b905095945050505050565b600081519050613af6816123f4565b92915050565b600060208284031215613b1257613b116123be565b5b6000613b2084828501613ae7565b91505092915050565b7f4e487b7100000000000000000000000000000000000000000000000000000000600052601260045260246000fdfea2646970667358221220e3ed910696bef8c0a4545ab62e909e3ba8c5454bd081802fce085273c0b64fab64736f6c63430008140033",
  "linkReferences": {},
  "deployedLinkReferences": {}
}